:100000000C9439010C9431030C940A030C94610193
:100010000C9461010C9461010C9461010C946101D8
:100020000C9461010C9461010C9461010C946101C8
:100030000C9461010C9461010C9461010C946101B8
:100040000C94AB080C9461010C947E030C9458033F
:100050000C9461010C9461010C9461010C94610198
:100060000C9461010C94610150415F4D4158005066
:10007000415F484947480050415F4C4F570050414D
:100080005F4D494E0031362062697473003820623A
:100090006974730044697361626C6564006E5246F2
:1000A00032344C30312B006E524632344C303100F9
:1000B0003235304B42505300324D42505300314D97
:1000C0004250530053656E643A4661696C65640042
:1000D00053656E643A4F4B001112131415160A0B38
:1000E0000C0D0E0F000102030405535441545553E7
:1000F0000909203D203078253032782052585F445D
:10010000523D25782054585F44533D2578204D4179
:10011000585F52543D25782052585F505F4E4F3DF6
:1001200025782054585F46554C4C3D25780D0A00E3
:10013000504120506F77657209203D2025530D0AEC
:10014000007E0077006F006800435243204C656ECC
:1001500067746809203D2025530D0A0094008D0026
:1001600085004D6F64656C0909203D2025530D0AFB
:1001700000A7009D004461746120526174650920EC
:100180003D2025530D0A00BE00B800B00044594E72
:1001900050442F4645415455524500434F4E464921
:1001A00047090052465F53455455500052465F433D
:1001B000480900454E5F52584144445200454E5F45
:1001C0004141090052585F50575F50302D3600545E
:1001D000585F41444452090052585F414444525FC1
:1001E00050322D350052585F414444525F50302DFB
:1001F000310000000000240027002A000000000059
:10020000250028002B000000000023002600290004
:1002100004040404040404040202020202020303AC
:1002200003030303010204081020408001020408B4
:100230001020010204081020000000080002010044
:100240000003040700000000000000000D0A002564
:100250003032780020307800255309203D000D0A07
:10026000002030782530327800255309203D0000E9
:10027000C50C11241FBECFEFD8E0DEBFCDBF11E00B
:10028000A0E0B1E0E4E8F5E202C005900D92A437E9
:10029000B107D9F722E0A4E7B1E001C01D92A7346D
:1002A000B207E1F711E0C9E3D1E004C02197FE01F4
:1002B0000E94DF11C833D107C9F70E94F5080C94DA
:1002C000C0120C9400000895CF92DF92EF92FF923B
:1002D0000F931F93CF93DF936C017A018B01C0E0E2
:1002E000D0E0CE15DF0581F0D8016D918D01D601EA
:1002F000ED91FC910190F081E02DC6010995892BCB
:1003000011F02196EECF7E01C701DF91CF911F91B1
:100310000F91FF90EF90DF90CF900895089580E0C7
:1003200090E00895FC01538D448D252F30E0842FFB
:1003300090E0821B930B541710F0CF96089501970D
:100340000895FC01918D828D981761F0828DDF01F7
:10035000A80FB11D5D968C91928D9F5F9F73928FB8
:1003600090E008958FEF9FEF0895FC01918D828DAD
:10037000981731F0828DE80FF11D858D90E008957A
:100380008FEF9FEF0895FC01918D228D892F90E0D2
:10039000805C9F4F821B91098F73992708958FE787
:1003A00091E00E94C30121E0892B09F420E0822F13
:1003B0000895FC01848DDF01A80FB11DA35ABF4F22
:1003C0002C91848D90E001968F739927848FA68954
:1003D000B7892C93A089B1898C91837080648C93A8
:1003E000938D848D981306C00288F389E02D808157
:1003F0008F7D80830895EF92FF920F931F93CF9389
:10040000DF93EC0181E0888F9B8D8C8D981305C064
:10041000E889F989808185FD26C0F62E0B8D10E0D4
:100420000F5F1F4F0F731127E02E8C8DE8120CC049
:100430000FB607FCFACFE889F989808185FFF5CFEF
:10044000CE010E94D901F1CF8B8DFE01E80FF11D85
:10045000E35AFF4FF0829FB7F8940B8FEA89FB892C
:10046000808180620AC09FB7F894EE89FF8960831B
:10047000E889F98980818370806480839FBF81E0EF
:1004800090E0DF91CF911F910F91FF90EF90089531
:10049000CF93DF93EC01888D8823C9F0EA89FB892B
:1004A000808185FD05C0A889B9898C9186FD0FC022
:1004B0000FB607FCF5CF808185FFF2CFA889B989F7
:1004C0008C9185FFEDCFCE010E94D901E7CFDF915E
:1004D000CF91089580E090E0892B29F00E94CF0110
:1004E00081110C9400000895CF93C82F682F8FE7D7
:1004F00091E00E94FB018C2FCC0F990BCF910895B6
:100500000E94AB120F931F93CF93DF93EC0188816E
:100510009981009729F02A813B812617370788F4B3
:100520008B016F5F7F4F0E94E511009761F0998307
:1005300088831B830A832C813D81232B11F4FC01CA
:10054000108281E001C080E0DF91CF911F910F9177
:100550000895EF92FF920F931F93CF93DF9361154E
:10056000710511F480E01CC041155105C1F07B01FB
:10057000EC018C819D818A01080F191FB801CE0101
:100580000E948202882371F3288139818C819D81A8
:10059000B701820F931F0E94B9121D830C8381E063
:1005A000DF91CF911F910F91FF90EF900895CF931E
:1005B000DF93EC0188819981009711F00E94361039
:1005C000198218821D821C821B821A82DF91CF91B0
:1005D0000895EF92FF920F931F93CF93DF93EC0157
:1005E0007B018A01BA010E948202811104C0CE01FE
:1005F0000E94D70207C01D830C83B70188819981AF
:100600000E94B912CE01DF91CF911F910F91FF90FF
:10061000EF9008951F920F920FB60F9211242F930F
:100620003F934F935F936F937F938F939F93AF937A
:10063000BF93EF93FF93E0910201F09103010995BD
:10064000FF91EF91BF91AF919F918F917F916F91AA
:100650005F914F913F912F910F900FBE0F901F9080
:1006600018951F920F920FB60F9211242F933F935C
:100670004F935F936F937F938F939F93AF93BF93AA
:10068000EF93FF93E0910001F09101010995FF9133
:10069000EF91BF91AF919F918F917F916F915F91FA
:1006A0004F913F912F910F900FBE0F901F90189573
:1006B0001F920F920FB60F9211242F933F934F93D7
:1006C0005F936F937F938F939F93AF93BF93EF93BA
:1006D000FF938FE791E00E94D901FF91EF91BF91C5
:1006E000AF919F918F917F916F915F914F913F91CA
:1006F0002F910F900FBE0F901F9018951F920F9281
:100700000FB60F9211242F938F939F93EF93FF9324
:10071000E0918F01F09190018081E0919501F0913D
:10072000960182FD12C09081809198018F5F8F7336
:1007300020919901821751F0E0919801F0E0E15881
:10074000FE4F958F8093980101C08081FF91EF91BA
:100750009F918F912F910F900FBE0F901F90189522
:100760008EBD00000DB407FEFDCF8EB508958F92AB
:100770009F92AF92BF92CF92DF92EF92FF920F9330
:100780001F93CF93DF93CDB7DEB7C355D1090FB613
:10079000F894DEBF0FBECDBF60E787E00E94A207DE
:1007A000082F0071182F107485FF07C080ED90E0AE
:1007B0000E94FE0581E080937A01002339F084ECE9
:1007C00090E00E94FE0581E0809379011123B9F049
:1007D00088E491E00E949F058EE591E00E949F05CC
:1007E0001BA21AA2FE01B4968EE1DF011D928A952A
:1007F000E9F780912302803240F010E207C087E1E0
:100800000E949C0680FD5EC1E3CF182F90912402C8
:10081000911103C0F82EF11A01C0F12C0E94990623
:1008200081E60E94B0035E01B2E2AB0EB11C65012D
:10083000115038F08FEF0E94B003F50181935F01F2
:10084000F7CFFF2029F08FEF0E94B003FA94F9CF81
:100850000E94960660E787E00E94A207C6010E94F8
:100860009F058EE591E00E949F058AA1843609F0DC
:10087000D3C060917D0170917E01CE018E5B9F4F50
:100880000E94C605C0907B01D0907C010D2C000C0D
:10089000EE08FF08F7FE25C06DE28FE791E00E94A9
:1008A000FB0122273327A9012C193D094E095F09B5
:1008B00019A2CE0181967C019AE0892E912CA12C5F
:1008C000B12CCA01B901A50194010E94BD11605D5E
:1008D000D7016E937D01211531054105510589F739
:1008E0001AC0A701960119A2FE01B1967F018AE004
:1008F000882E912CA12CB12CCA01B901A50194011B
:100900000E94BD11605DD7016E937D0121153105F7
:100910004105510589F7C7010E949F058EE591E0C9
:100920000E949F0560917B0170917C01CE01885BE4
:100930009F4F0E94C6051A8219821C821B821E824A
:100940001D822A966EAD7FAD2A976115710541F023
:100950002E964EAD5FAD2E97CE0101960E94E90214
:1009600041E050E061E671E0CE0101960E94A902EB
:10097000882309F4A2C028964EAD5FAD289724962F
:100980006EAD7FAD2497CE0101960E94A902811120
:1009900004C0CE0101960E94D70260961FAE1EAE23
:1009A000609762961FAE1EAE629764961FAE1EAE33
:1009B000649769817A816115710539F04D815E8195
:1009C000CE01825B9F4F0E94E90289819A810E9439
:1009D00036102A968EAD9FAD2A970E943610249627
:1009E0008EAD9FAD24970E943610CE01825B9F4F43
:1009F0000E94B1056096EEACFFAC6097B701CE01E6
:100A000001960E94B912C7010E94361060E2CE0121
:100A100001960E94810756C060E28BE091E00E943F
:100A2000810724961FAE1EAE249726961FAE1EAEDB
:100A3000269728961FAE1EAE2897F601019000203B
:100A4000E9F73197AF014C195D09B601CE018E5B14
:100A50009F4F0E94E9021A8219821C821B821E8209
:100A60001D824FE050E063E671E0CE0101960E94E6
:100A7000E90228964EAD5FAD289724966EAD7FAD06
:100A80002497CE0101960E94A902811104C0CE01D3
:100A900001960E94D702CE0101960E94B10589817C
:100AA0009A810E94361024968EAD9FAD24970E94A5
:100AB000361082E00E94770805C0CE0101960E94A0
:100AC000D70259CFCD5ADF4F0FB6F894DEBF0FBE15
:100AD000CDBFDF91CF911F910F91FF90EF90DF90ED
:100AE000CF90BF90AF909F908F900895833081F00A
:100AF00028F4813099F08230A1F008958730A9F070
:100B00008830B9F08430D1F4809180008F7D03C0AB
:100B1000809180008F7780938000089584B58F77CF
:100B200002C084B58F7D84BD08958091B0008F7719
:100B300003C08091B0008F7D8093B000089500972E
:100B400069F0FC0101900020E9F73197AF01481BE3
:100B5000590BBC018FE791E00C94640180E090E0B8
:100B60000895CF93DF93FC014481558160817181A9
:100B70008FE791E00E946401EC018EE591E00E9414
:100B80009F058C0F9D1FDF91CF910895EF92FF92EB
:100B90000F931F93CF93DF93CDB7DEB762970FB656
:100BA000F894DEBF0FBECDBF8C01CB01F8011182DE
:100BB000108213821282158214824AE09E012F5FF6
:100BC0003F4F7901B9010E940B0DF7010190002000
:100BD000E9F73197AF014E195F09B701C8010E94CB
:100BE000E90262960FB6F894DEBF0FBECDBFDF916B
:100BF000CF911F910F91FF90EF9008950F931F9346
:100C0000CF93DF938C01C0E0D0E0F801EC0FFD1F23
:100C10006491662341F08FE791E00E94FB01892BEC
:100C200011F02196F2CF8EE591E00E949F058C0F86
:100C30009D1FDF91CF911F910F910895CF93DF9367
:100C4000282F30E0F901E85CFD4F8491F901EC5D5B
:100C5000FD4FD491F901E05FFD4FC491CC2391F099
:100C600081110E947605EC2FF0E0EE0FFF1FEA5F86
:100C7000FD4FA591B491EC91ED2381E090E021F43A
:100C800080E002C080E090E0DF91CF9108951F9353
:100C9000CF93DF93282F30E0F901E85CFD4F84917A
:100CA000F901EC5DFD4FD491F901E05FFD4FC49176
:100CB000CC23C1F0162F81110E947605EC2FF0E0B5
:100CC000EE0FFF1FE450FE4FA591B4919FB7F8942B
:100CD000111104C08C91D095D82302C0EC91DE2B69
:100CE000DC939FBFDF91CF911F9108959CB59F7DAD
:100CF0009CBD9CB5937F9CBD9CB59C7F9CBD9DB5C8
:100D000091609DBD682F80911E020E9447068091D0
:100D10003002909131028230910538F0880F991F8E
:100D2000880F991F05970197F1F7089581E00C94BA
:100D3000760680E00C947606CF93C82F0E94990621
:100D40008C2F8F710E94B0038FEF0E94B003C82FC9
:100D50000E9496068C2FCF910895FF920F931F93B8
:100D6000CF93DF93C62FD42F9F938F9389E692E082
:100D70009F938F930E947B0DDC0F0F900F900F902D
:100D80000F9001E612E0CD1791F0FF24F394FC0ED2
:100D90008C2F0E949C061F928F931F930F930E948B
:100DA0007B0D0F900F900F900F90CF2DECCF8EE515
:100DB00092E09F938F930E947B0D0F900F90DF9195
:100DC000CF911F910F91FF9008952F923F924F92D4
:100DD0005F926F927F928F929F92AF92BF92CF92CB
:100DE000DF92EF92FF920F931F93CF93DF931F92A7
:100DF000CDB7DEB7962E342E4DB65EB69F938F9349
:100E000088E592E09F938F930E947B0D390C0F90A1
:100E10000F900F900F9084E5C82E82E0D82E9FE4AB
:100E2000A92E92E0B92E931409F44AC06DB67EB68D
:100E300020902A02022D10E08DB79EB7801B910BE7
:100E40000FB6F8949EBF0FBE8DBFEDB7FEB73196BB
:100E50007F01F1E0F90DF9830E949906892D8F71C8
:100E60000E94B0034701222041F08FEF0E94B0039F
:100E7000F40181934F012A94F6CF0E949606DF92E7
:100E8000CF920E947B0D0E0D1F1D0F900F900150F1
:100E900011090E151F0568F0F80180811F928F93CC
:100EA000BF92AF920E947B0D0F900F900F900F900A
:100EB000EECF0FB6F8947EBE0FBE6DBE9980B3CF55
:100EC0008CE492E09F938F930E947B0D0F900F9084
:100ED0000FB6F8945EBE0FBE4DBE0F90DF91CF915E
:100EE0001F910F91FF90EF90DF90CF90BF90AF9048
:100EF0009F908F907F906F905F904F903F902F903A
:100F00000895FF920F931F93CF93DF93F82ED92F5D
:100F1000C62F613208F0C0E20E94990689EA0E9459
:100F2000B0030F2D1D2FC15030F0F80181918F01BA
:100F30000E94B003F8CFDF91CF911F910F91FF90E6
:100F40000C949606CF93DF93C82FD62F0E94990654
:100F50008C2F8F7180620E94B003C82F8D2F0E944A
:100F6000B0030E9496068C2FDF91CF910895EF92E7
:100F7000FF920F931F93CF93DF93182F7B01C42F02
:100F80000E949906812F8F7180620E94B003D82F32
:100F90008701CC2339F0F80181918F010E94B003C1
:100FA000C150F7CF0E9496068D2FDF91CF911F91F0
:100FB0000F91FF90EF900895CF93DF9390E0FC01A5
:100FC000EC5DFD4F2491FC01E05FFD4F849188238F
:100FD00061F190E0880F991FFC01EE50FE4FC59122
:100FE000D491FC01E450FE4FA591B491611109C068
:100FF0009FB7F8948881209582238883EC912E23D3
:101000000BC0623061F49FB7F8948881322F30951D
:1010100083238883EC912E2B2C939FBF06C08FB720
:10102000F894E8812E2B28838FBFDF91CF9108950C
:101030003FB7F8948091390290913A02A0913B0217
:10104000B0913C0226B5A89B05C02F3F19F0019630
:10105000A11DB11D3FBFBA2FA92F982F8827820F3E
:10106000911DA11DB11DBC01CD0142E0660F771F8E
:10107000881F991F4A95D1F708958F929F92AF923A
:10108000BF92CF92DF92EF92FF926B017C010E94A0
:1010900018084B015C01C114D104E104F104F1F022
:1010A0000E941808DC01CB0188199909AA09BB091B
:1010B000883E9340A105B10570F321E0C21AD10822
:1010C000E108F10888EE880E83E0981EA11CB11C8F
:1010D000C114D104E104F10419F7DDCFFF90EF90C2
:1010E000DF90CF90BF90AF909F908F9008951F9307
:1010F000CF93DF93182FC0E0C117C1F0D091040146
:1011000061E08D2F0E94470664E670E080E090E089
:101110000E943D0860E08D2F0E94470664E670E063
:1011200080E090E00E943D08CF5FE6CFDF91CF9155
:101130001F91089580E00E949C0681FD0BC0682FDE
:10114000626080E00E94A20765E070E080E090E0CD
:101150000C943D0808951F920F920FB60F92112420
:101160002F933F938F939F93AF93BF9380913502BB
:1011700090913602A0913702B0913802309134023A
:1011800023E0230F2D3720F40196A11DB11D05C0CA
:1011900026E8230F0296A11DB11D209334028093EF
:1011A000350290933602A0933702B09338028091B3
:1011B000390290913A02A0913B02B0913C02019613
:1011C000A11DB11D8093390290933A02A0933B0276
:1011D000B0933C02BF91AF919F918F913F912F911E
:1011E0000F900FBE0F901F901895CF93DF9300D0F4
:1011F00000D01F92CDB7DEB7789484B5826084BDED
:1012000084B5816084BD85B5826085BD85B581600A
:1012100085BD80916E00816080936E001092810088
:101220008091810082608093810080918100816043
:101230008093810080918000816080938000809104
:10124000B10084608093B1008091B0008160809390
:10125000B00080917A00846080937A0080917A0057
:10126000826080937A0080917A00816080937A0016
:1012700080917A00806880937A001092C100E0919A
:101280008F01F091900182E08083E0918B01F091D9
:101290008C011082E0918D01F0918E0180E18083BC
:1012A00010929701E0919301F091940186E0808380
:1012B000E0919101F0919201808180618083E091C1
:1012C0009101F0919201808188608083E091910189
:1012D000F0919201808180688083E0919101F0918A
:1012E000920180818F7D808360E070E084E792E0EE
:1012F0000E94300D8AE08093040161E00E94DC07C7
:1013000060E08AE00E9447060AE112E0BEE2EB2EAE
:10131000B2E0FB2E8BE9882E912CA12CB12C95E507
:10132000492E512C612C712C80911C0290911D0230
:1013300020911E0230911F028217930719F061E07D
:101340000E94DC0780911E0290911F0220911C02D6
:1013500030911D022817390719F061E00E94DC075F
:10136000DFB6F89480917401811126C0F801849150
:10137000F7012491E82FF0E0EE0FFF1FEE50FE4F33
:10138000A591B4919C91822F892321F461E08AE098
:101390000E94470661E08AE00E94DC078CB580610C
:1013A0008CBD8CB580648CBD61E08DE00E94DC0753
:1013B00061E08BE00E94DC07809174018F5F809375
:1013C0007401DFBE80911C0290911D0220911E02CB
:1013D00030911F028217930719F060E00E944706C0
:1013E00081E00E94760665E070E080E090E00E9477
:1013F0003D086CE080E00E94A2076FE584E00E9457
:10140000A20786E00E949C06877D8062D82E80928B
:101410002C0290922D02A0922E02B0922F02682FE1
:1014200086E00E94A20786E00E949C06D81609F476
:10143000A8C286E00E949C06D82E86E00E949C06E8
:1014400040922C0250922D0260922E0270922F0236
:10145000682F677D86E00E94A20786E00E949C06B6
:101460000E94990680E50E94B00383E70E94B003C2
:101470000E94960660E08DE10E94A20760E08CE188
:101480000E94A2071092240260E787E00E94A20750
:101490006CE485E00E94A2070E94990682EE0E94F9
:1014A000B0030E9496060E94990681EE0E94B00346
:1014B0000E9496060E949A0880E00E949C06682F6F
:1014C0006E7F80E00E94A2078FEF8D0D8E3F20F08F
:1014D00083E00E94770828CF86E00E949C06887FE0
:1014E000682F616086E00E94A2078DE10E949C0641
:1014F000682F66608DE10E94A2078CE10E949C0625
:10150000682F63608CE10E94A20711E0109324020F
:101510008DE10E949C06682F64608DE10E94A20705
:101520008CE10E949C06682F6F638CE10E94A207E9
:101530001093240240912A0261E371E08AE00E9444
:10154000B70740912A0261E371E080E10E94B7078A
:101550006091230281E10E94A207EFEDF0E0849107
:1015600040912A026BE271E00E94B707E9EDF0E0DA
:101570008491609123020E94A20782E00E949C064F
:10158000E5EEF0E0E49161E070E001C0660FEA95FD
:10159000EAF7682B82E00E94A2070E949A0880E086
:1015A0000E949C06682F616080E00E94A20760E7AD
:1015B00087E00E94A20780911C0290911D02209159
:1015C0001E0230911F028217930719F061E00E94FA
:1015D000470680912502882341F040912A0265E266
:1015E00072E08AE00E94B70712C082E00E949C0667
:1015F000E4EEF0E0E49121E030E001C0220FEA9552
:10160000EAF72095622F682382E00E94A2078DE10D
:101610000E949C0681FF07C00E94990681EE0E94ED
:10162000B0030E94960664E085E791E00E9481077E
:101630008091750190917601A0917701B091780128
:101640000196A11DB11D8093750190937601A09321
:101650007701B09378010E9499068FEF0E94B00342
:10166000182F0E949606812F90E0212F21701F9243
:101670002F9395958795877099279F938F9314FB48
:10168000882780F91F928F9315FB882780F91F9276
:101690008F9316FB882780F91F928F931F921F93B9
:1016A0008AEE90E09F938F930E947B0D42E06AE068
:1016B00085EE91E00E94E50644E06CE088ED91E063
:1016C0000E94AD0641E060E18FEC91E00E94E506EA
:1016D00046E061E184EC91E00E94AD0641E061E00A
:1016E0008DEB91E00E94AD0641E062E083EB91E07A
:1016F0000E94AD0641E065E08CEA91E00E94AD06F3
:1017000041E066E083EA91E00E94AD0641E060E0DE
:101710008BE991E00E94AD0642E06CE18DE891E03A
:101720000E94AD0686E00E949C0688720FB6F8946F
:10173000DEBF0FBECDBF803241F021E090E08830A7
:1017400009F020E0E22FF92F02C0E2E0F0E0EE0F16
:10175000FF1FE957FE4F859194919F938F9385E7E3
:1017600091E09F938F930E947B0DE0912202F0E025
:10177000EE0FFF1FEF58FE4F859194919F938F932B
:1017800082E691E09F938F930E947B0D80E00E9400
:101790009C06182F81E00E949C060FB6F894DEBFCD
:1017A0000FBECDBF13FD02C0882329F012FD06C075
:1017B000E1E0F0E005C0E0E0F0E002C0E2E0F0E0EF
:1017C000EE0FFF1FE45AFE4F859194919F938F93E4
:1017D00089E491E09F938F930E947B0D86E00E94A5
:1017E0009C068670E82FF0E0EF5BFE4F85919491A8
:1017F0009F938F9380E391E09F938F930E947B0D43
:1018000062E370E080E090E00E943D0887EB93E0A7
:101810009093010180930001809169008C7F8093F7
:101820006900E89A82E00E9477080FB6F894DEBF5C
:101830000FBECDBF4BE9A42EB12C88248394912CEC
:1018400019821A821B821C821D8261E084E00E9440
:10185000DC0760E084E00E94470662E170E080E01F
:1018600090E00E943D0861E084E00E944706C501C7
:101870000197F1F760E084E00E94DC0701E117E2E4
:1018800084E00E941E06892B21F401501109C1F742
:1018900062C001E117E284E00E941E06019721F474
:1018A00001501109C1F757C028E2E22EF12C17E0D0
:1018B00000E091E1692E97E2792E84E00E941E06F5
:1018C000892B29F431E0631A7108B9F744C00E94EA
:1018D00018081B012C0181E1682E87E2782E84E034
:1018E0000E941E06019729F481E0681A7108B9F771
:1018F00032C00E941808DC01CB0182199309A409A7
:10190000B5098997A105B10578F0E1E0F0E0EC0FA9
:10191000FD1FE00FF11D2081C401012E01C0880FC1
:101920000A94EAF7822B8083111103C00F5F17E03E
:1019300001C0115091E0E91AF10809F0BACF89818C
:1019400090E090937C0180937B018B8190E0909359
:101950007E0180937D0180917A01882331F081E0BE
:101960000E94770810927A0109C08091790188233A
:1019700029F083E00E947708109279010E946A02A0
:101980005FCF81E08093220254CDEFE7F1E0138234
:10199000128288EE93E0A0E0B0E084839583A68372
:1019A000B7838AE391E09183808385EC90E095870B
:1019B000848784EC90E09787868780EC90E0918B19
:1019C000808B81EC90E0938B828B82EC90E0958B06
:1019D000848B86EC90E0978B868B118E128E138E03
:1019E000148EECE1F2E087E090E09183808388E060
:1019F00090E093838283168280E28783108685E05D
:101A0000868785E090E0A0E0B0E0848B958BA68B84
:101A1000B78B11860895BB274A3031F4992322F4FD
:101A2000BDE2909581959F4F0C94170DBB27FB014C
:101A30005527AA27880F991FAA1FA41710F0A41BC7
:101A400083955051B9F7A05DAA3308F0A95DA19321
:101A5000009779F7B111B1931192CB010C94DC107E
:101A60000F931F93CF93DF93009731F461157105A6
:101A700019F480E090E03AC08B01EC016EE070E078
:101A800081E090E00E94820FFC01892B91F380E8B5
:101A900083830115110571F01387028781E8838321
:101AA00080913D0290913E02892B21F4F0933E02F9
:101AB000E0933D022097C9F0D187C087838182607F
:101AC000838380913F0290914002892B71F4F093BF
:101AD0004002E0933F028091410290914202892BA3
:101AE00021F4F0934202E0934102CF01DF91CF91C4
:101AF0001F910F910895A0E0B0E0E1E8FDE00C94A3
:101B00009411AE01495F5F4FDA016D917D91AD0196
:101B10000DE312E0F80182819381DC0113962C9190
:101B20001397286013962C930E94A10DD80112964A
:101B3000ED91FC9113972381277F2383E4E00C949C
:101B4000B011ABE0B0E0E7EAFDE00C9486116C0167
:101B50007B018A01FC0117821682838181FFCCC13F
:101B6000CE0101963C01F6019381F70193FD859129
:101B700093FF81917F01882309F4BAC1853239F43A
:101B800093FD859193FF81917F01853229F4B60100
:101B900090E00E94EC10E7CF912C212C312CFFE13A
:101BA000F315D8F08B3279F038F4803279F0833243
:101BB000A1F4232D20611DC08D3261F0803369F4C2
:101BC000232D216016C0832D8260382EE32DE46022
:101BD0003E2E2AC0F32DF8601DC037FC2DC020ED2D
:101BE000280F2A3040F08E32B9F436FC81C1232D03
:101BF0002064322E19C036FE06C08AE0989E200D61
:101C00001124922E11C0EAE02E9E200D1124222EC6
:101C1000F32DF0623F2E08C08C3621F4832D8068AE
:101C2000382E02C0883641F4F70193FD859193FF69
:101C300081917F018111B3CF982F9F7D955493306F
:101C400028F40C5F1F4F9FE399830DC0833631F05A
:101C5000833771F0833509F059C021C0F8018081C4
:101C600089830E5F1F4F88248394912C530113C0E6
:101C70002801F2E04F0E511CF801A080B18036FE21
:101C800003C0692D70E002C06FEF7FEFC5010E94B5
:101C9000D1104C018201F32DFF773F2E16C0280191
:101CA00022E0420E511CF801A080B18036FE03C034
:101CB000692D70E002C06FEF7FEFC5010E94BF1079
:101CC0004C01F32DF0683F2E820133FC1BC0822DA6
:101CD00090E088169906B0F4B60180E290E00E9488
:101CE000EC102A94F4CFF50137FC859137FE8191F1
:101CF0005F01B60190E00E94EC1021102A9421E0CF
:101D0000821A91088114910471F7E8C0843611F0A9
:101D1000893641F5F80137FE07C060817181828103
:101D200093810C5F1F4F08C060817181072E000CEA
:101D3000880B990B0E5F1F4FF32DFF763F2E97FFF9
:101D400009C090958095709561957F4F8F4F9F4FFB
:101D5000F0683F2E2AE030E0A3010E942811882E6F
:101D6000861845C0853731F4232D2F7EB22E2AE008
:101D700030E025C0932D997FB92E8F36C1F018F42D
:101D8000883579F0B5C0803719F0883721F0B0C0B8
:101D9000E92FE061BE2EB4FE0DC0FB2DF460BF2E16
:101DA00009C034FE0AC0292F2660B22E06C028E0E2
:101DB00030E005C020E130E002C020E132E0F8016F
:101DC000B7FE07C060817181828193810C5F1F4FD4
:101DD00006C06081718180E090E00E5F1F4FA3011B
:101DE0000E942811882E8618FB2DFF773F2E36FE85
:101DF0000DC0232D2E7FA22E891458F434FE0BC063
:101E000032FC09C0832D8E7EA82E05C0B82CA32CD1
:101E100003C0B82C01C0B92CA4FE0FC0FE01E80D10
:101E2000F11D8081803321F49A2D997EA92E09C05D
:101E3000A2FE06C0B394B39404C08A2D867809F03C
:101E4000B394A3FC11C0A0FE06C0B21488F4280C01
:101E5000922C9B180EC0B21460F4B60180E290E0A0
:101E60000E94EC10B394F7CFB21418F42B1802C0F0
:101E7000982C212CA4FE10C0B60180E390E00E94B3
:101E8000EC10A2FE17C0A1FC03C088E790E002C0DE
:101E900088E590E0B6010CC08A2D867859F0A1FE45
:101EA00002C08BE201C080E2A7FC8DE2B60190E0A7
:101EB0000E94EC10891438F4B60180E390E00E948F
:101EC000EC109A94F7CF8A94F301E80DF11D80810C
:101ED000B60190E00E94EC108110F5CF222009F4A9
:101EE00042CEB60180E290E00E94EC102A94F6CF38
:101EF000F6018681978102C08FEF9FEF2B96E2E17A
:101F00000C94A2110F931F93CF93DF93869F8001B0
:101F1000879F100D969F100D1124C8010E949E0FDF
:101F2000EC01009729F0A80160E070E00E94CA105F
:101F3000CE01DF91CF911F910F9108950F931F93C1
:101F4000CF93DF938230910510F482E090E0E0912E
:101F50004502F091460220E030E0A0E0B0E030978A
:101F600019F1408151810281138148175907C8F046
:101F70008417950769F4109731F012960C93129715
:101F800013961C9327C0009345021093460222C06B
:101F90002115310519F04217530718F49A01BD01B4
:101FA000EF01DF01F801DBCF21153105F9F0281B26
:101FB000390B2430310580F48A819B8161157105CC
:101FC00021F0FB019383828304C0909346028093A7
:101FD0004502FE01329644C0FE01E20FF31F8193D9
:101FE000919322503109398328833AC020914302CA
:101FF00030914402232B41F42091070130910801D4
:102000003093440220934302209105013091060150
:102010002115310541F42DB73EB74091090150918A
:102020000A01241B350BE0914302F0914402E217B0
:10203000F307A0F42E1B3F0B2817390778F0AC01EB
:102040004E5F5F4F2417350748F04E0F5F1F5093C8
:102050004402409343028193919302C0E0E0F0E098
:10206000CF01DF91CF911F910F910895CF93DF930F
:10207000009709F481C0FC01329713821282A0916B
:102080004502B0914602109781F420813181820F80
:10209000931F20914302309144022817390751F5CC
:1020A000F0934402E093430267C0ED0120E030E08A
:1020B000CE17DF0740F44A815B819E01411551052F
:1020C000F1F0EA01F5CFD383C28340815181840FBF
:1020D000951FC817D90759F488819981840F951FD6
:1020E0000296918380838A819B81938382832115C9
:1020F000310529F4F0934602E09345023DC0E90121
:10210000FB83EA8349915991C40FD51FEC17FD0752
:1021100061F480819181840F951F0296E901998372
:102120008883828193819B838A83E0E0F0E012962A
:102130008D919C911397009719F0FD01DC01F7CF69
:102140008D919C9111979D012E5F3F4F820F931FA0
:1021500020914302309144022817390769F43097DF
:1021600029F4109246021092450202C01382128294
:10217000B0934402A0934302DF91CF910895FC01F4
:102180000590615070400110D8F7809590958E0FA2
:102190009F1F0895DC0101C06D9341505040E0F74E
:1021A0000895FC016150704001900110D8F78095AE
:1021B00090958E0F9F1F0895DC01FC01672F719190
:1021C0007723E1F7329704C07C916D93708362911D
:1021D000AE17BF07C8F308950F931F93CF93DF93F4
:1021E000FB01238121FD03C08FEF9FEF2CC022FF55
:1021F00016C046815781248135814217530744F424
:10220000A081B1819D012F5F3F4F318320838C934B
:10221000268137812F5F3F4F3783268314C08B0180
:10222000EC01FB010084F185E02D0995892BE1F695
:10223000D80116968D919C911797019617969C93AD
:102240008E931697CE01DF91CF911F910F91089534
:10225000FA01AA27283051F1203181F1E8946F93D7
:102260006E7F6E5F7F4F8F4F9F4FAF4FB1E03ED07D
:10227000B4E03CD0670F781F891F9A1FA11D680F1B
:10228000791F8A1F911DA11D6A0F711D811D911D4E
:10229000A11D20D009F468943F912AE0269F1124C3
:1022A0003019305D3193DEF6CF010895462F477027
:1022B000405D4193B3E00FD0C9F7F6CF462F4F7082
:1022C000405D4A3318F0495D31FD4052419302D0E0
:1022D000A9F7EACFB4E0A695979587957795679586
:1022E000BA95C9F700976105710508959B01AC0186
:1022F0000A2E06945795479537952795BA95C9F7AD
:10230000620F731F841F951FA01D08952F923F9287
:102310004F925F926F927F928F929F92AF92BF92F5
:10232000CF92DF92EF92FF920F931F93CF93DF93A1
:10233000CDB7DEB7CA1BDB0B0FB6F894DEBF0FBEFE
:10234000CDBF09942A88398848885F846E847D844B
:102350008C849B84AA84B984C884DF80EE80FD804D
:102360000C811B81AA81B981CE0FD11D0FB6F894C3
:10237000DEBF0FBECDBFED010895A1E21A2EAA1B4C
:10238000BB1BFD010DC0AA1FBB1FEE1FFF1FA21725
:10239000B307E407F50720F0A21BB30BE40BF50B22
:1023A000661F771F881F991F1A9469F760957095AB
:1023B000809590959B01AC01BD01CF010895EE0F72
:1023C000FF1F0590F491E02D0994A0E0B0E0EBEE42
:1023D000F1E10C948A11EC01009721F4CB010E94E9
:1023E0009E0FB4C0FC01E60FF71F9C01225031097B
:1023F000E217F30708F4A8C0D9010D911C911197B9
:1024000006171707B0F00530110508F49BC0C80186
:1024100004978617970708F495C002501109061B08
:10242000170B019311936D937C93CF010E9436108B
:1024300089C05B01A01AB10A4C01800E911EA091C7
:102440004502B0914602612C712CE12CF12C1097C1
:1024500009F446C08D919C911197A815B905B1F565
:102460006C0142E0C40ED11CCA14DB0478F14C01AB
:102470008A189B08640142E0C40ED11C1296BC90DD
:1024800012971396AC91B5E0CB16D10440F0B2820E
:10249000A38391828082D9016D937C9309C00E5FE2
:1024A0001F4F800F911FF90191838083EB2DFA2F2D
:1024B000E114F10431F0D7011396FC93EE931297D7
:1024C00041C0F0934602E09345023CC0681679068D
:1024D00008F43C017D0112960D90BC91A02DB7CF60
:1024E000809143029091440288169906E1F46616A1
:1024F0007706C8F48091050190910601009741F498
:102500008DB79EB74091090150910A01841B950B2C
:10251000E817F907C8F4F0934402E0934302F90185
:10252000718360830FC0CB010E949E0F7C010097D6
:1025300059F0A801BE010E94B012CE010E943610CF
:10254000C70104C0CE0102C080E090E0CDB7DEB785
:10255000EEE00C94A61181E090E0F8940C94C01287
:10256000FB01DC0102C001900D9241505040D8F7B0
:102570000895FB01DC0101900D920020E1F7089520
:04258000F894FFCFFD
:10258400630163010A000047028000646F6E650006
:102594000000000000000000000000000000000037
:1025A4000000000000000000000000303030303136
:1025B40000CECCCECCCE00000000FB016401920121
:1025C4004802C301A101B50164617461207265719F
:1025D40075657374207265636569766564000D0AB8
:1025E4000026004F7074696D616C2076616C7565AE
:0425F4007320000050
:107800000C94343C0C94513C0C94513C0C94513CE1
:107810000C94513C0C94513C0C94513C0C94513CB4
:107820000C94513C0C94513C0C94513C0C94513CA4
:107830000C94513C0C94513C0C94513C0C94513C94
:107840000C94513C0C94513C0C94513C0C94513C84
:107850000C94513C0C94513C0C94513C0C94513C74
:107860000C94513C0C94513C11241FBECFEFD8E036
:10787000DEBFCDBF11E0A0E0B1E0ECE9FFE702C060
:1078800005900D92A230B107D9F712E0A2E0B1E065
:1078900001C01D92AD30B107E1F70E942D3D0C945F
:1078A000CC3F0C94003C982F959595959595959582
:1078B000905D8F708A307CF0282F295A8091C0000B
:1078C00085FFFCCF9093C6008091C00085FFFCCF60
:1078D0002093C6000895282F205DF0CF982F809127
:1078E000C00085FFFCCF9093C6000895EF92FF92F1
:1078F0000F931F93EE24FF2487018091C00087FD22
:1079000017C00894E11CF11C011D111D81E4E8164B
:1079100082E4F8068FE0080780E0180770F3E09132
:107920000401F091050109958091C00087FFE9CF1E
:107930008091C6001F910F91FF90EF9008950E94D3
:10794000763C982F8091C00085FFFCCF9093C600B5
:1079500091362CF490330CF09053892F089597555D
:10796000892F08951F930E949F3C182F0E949F3CCF
:107970001295107F810F1F9108951F93182F882350
:1079800021F00E94763C1150E1F71F9108951F935A
:10799000182F0E94763C803249F0809103018F5F5E
:1079A000809303018530C1F01F9108958091C0003C
:1079B00085FFFCCF84E18093C6008091C00085FFE5
:1079C000FCCF1093C6008091C00085FFFCCF80E102
:1079D0008093C6001F910895E0910401F091050184
:1079E00009951F9108950E94763C803241F0809164
:1079F00003018F5F80930301853081F008958091AA
:107A0000C00085FFFCCF84E18093C6008091C00058
:107A100085FFFCCF80E18093C6000895E0910401CA
:107A2000F09105010995089540E951E08823A1F0FE
:107A30002D9A28EE33E0FA013197F1F721503040CA
:107A4000D1F72D9828EE33E0FA013197F1F7215064
:107A50003040D1F7815061F708953F924F925F9285
:107A60006F927F928F929F92AF92BF92CF92DF924E
:107A7000EF92FF920F931F93CF93DF93000080E16B
:107A80008093C4001092C50088E18093C10086E015
:107A90008093C2005098589A259A81E00E94143D24
:107AA00024E1F22E9EE1E92E85E9D82E0FE0C02ECA
:107AB00010E1B12EAA24A394B1E49B2EA6E58A2E50
:107AC000F2E57F2EE0E26E2E79E4572E63E5462E36
:107AD00050E5352E0E94763C8033B1F18133B9F107
:107AE000803409F46FC0813409F476C0823409F41B
:107AF00085C0853409F488C0803531F1823521F1A3
:107B0000813511F1853509F485C0863509F48DC0BC
:107B1000843609F496C0843709F403C1853709F423
:107B200072C1863709F466C0809103018F5F80932C
:107B30000301853079F6E0910401F0910501099582
:107B40000E94763C803351F60E94F33CC3CF0E94E2
:107B5000763C803249F78091C00085FFFCCFF092DF
:107B6000C6008091C00085FFFCCF9092C600809136
:107B7000C00085FFFCCF8092C6008091C00085FFC9
:107B8000FCCF7092C6008091C00085FFFCCF609250
:107B9000C6008091C00085FFFCCF5092C600809146
:107BA000C00085FFFCCF4092C6008091C00085FFD9
:107BB000FCCF3092C6008091C00085FFFCCFB09210
:107BC000C60088CF0E94763C863808F4BDCF0E945C
:107BD000763C0E94F33C7ECF0E94763C803809F4CC
:107BE0009CC0813809F40BC1823809F43CC1883942
:107BF00009F48FC080E00E94C73C6CCF84E10E94F2
:107C0000BD3C0E94F33C66CF85E00E94BD3C0E94D3
:107C1000F33C60CF0E94763C809306010E94763C44
:107C2000809307010E94F33C55CF0E94763C80333D
:107C300009F41DC183E00E94BD3C80E00E94C73C66
:107C400049CF0E94763C809309020E94763C809343
:107C5000080280910C028E7F80930C020E94763C79
:107C6000853409F415C18091080290910902892B8D
:107C700089F000E010E00E94763CF801E85FFE4FDA
:107C800080830F5F1F4F80910802909109020817AF
:107C9000190788F30E94763C803209F045CF809125
:107CA0000C0280FF01C16091060170910701660F0F
:107CB000771F7093070160930601A0910802B091AD
:107CC00009021097C9F0E8E0F1E09B01AD014E0F09
:107CD0005F1FF999FECF32BD21BD819180BDFA9A17
:107CE000F99A2F5F3F4FE417F50799F76A0F7B1F4B
:107CF00070930701609306018091C00085FFFCCF5F
:107D0000F092C6008091C00085FFFCCFB092C60003
:107D1000E1CE83E00E94C73CDDCE82E00E94C73CFA
:107D2000D9CE0E94763C809309020E94763C8093D3
:107D300008028091060190910701880F991F909386
:107D40000701809306010E94763C853409F4A6C0A1
:107D500080910C028E7F80930C020E94763C8032D0
:107D600009F0B8CE8091C00085FFFCCFF092C6002C
:107D7000609108027091090261157105B9F140E046
:107D800050E080910C02A82FA170B82FB27011C0E2
:107D9000BB2309F45CC0E0910601F0910701319624
:107DA000F0930701E09306014F5F5F4F46175707B7
:107DB000E8F4AA2369F3F999FECF209106013091E6
:107DC000070132BD21BDF89A90B58091C00085FFB2
:107DD000FCCF9093C6002F5F3F4F30930701209355
:107DE00006014F5F5F4F4617570718F38091C00099
:107DF00085FDE5CE8091C00085FFF8CFE0CE81E023
:107E00000E94C73C67CE0E94763C803209F08CCE3F
:107E10008091C00085FFFCCFF092C6008091C00029
:107E200085FFFCCFE092C6008091C00085FFFCCFAB
:107E3000D092C6008091C00085FFFCCFC092C600E2
:107E40008091C00085FFFCCFB092C60043CEE09188
:107E50000601F091070194918091C00085FFFCCF4D
:107E60009093C6009CCF80E10E94C73C33CE0E9415
:107E7000763C0E94763C182F0E94763C112309F430
:107E800083C0113009F484C08FE00E94C73C22CE29
:107E900080910C02816080930C02E5CE80910C02EF
:107EA000816080930C0259CF809107018823880F4D
:107EB000880B8A2180930B02809106019091070123
:107EC000880F991F90930701809306018091080203
:107ED00080FF09C080910802909109020196909359
:107EE000090280930802F894F999FECF1127E091D6
:107EF0000601F0910701C8E0D1E08091080290915D
:107F00000902103091F40091570001700130D9F34B
:107F100003E000935700E89500915700017001308D
:107F2000D9F301E100935700E89509901990009169
:107F3000570001700130D9F301E000935700E89534
:107F40001395103498F011270091570001700130FB
:107F5000D9F305E000935700E895009157000170B0
:107F60000130D9F301E100935700E895329602976A
:107F700009F0C7CF103011F00296E5CF112480919F
:107F8000C00085FFB9CEBCCE8EE10E94C73CA2CD19
:0C7F900085E90E94C73C9ECDF894FFCF0D
:027F9C00800063
:040000030000780081
:00000001FF
